{
  "contractName": "SolnSquareVerifier",
  "abi": [
    {
      "inputs": [
        {
          "internalType": "address",
          "name": "squareVerifierAddress",
          "type": "address"
        },
        {
          "internalType": "string",
          "name": "name",
          "type": "string"
        },
        {
          "internalType": "string",
          "name": "symbol",
          "type": "string"
        }
      ],
      "payable": false,
      "stateMutability": "nonpayable",
      "type": "constructor"
    },
    {
      "anonymous": false,
      "inputs": [
        {
          "indexed": true,
          "internalType": "address",
          "name": "owner",
          "type": "address"
        },
        {
          "indexed": true,
          "internalType": "address",
          "name": "approved",
          "type": "address"
        },
        {
          "indexed": true,
          "internalType": "uint256",
          "name": "tokenId",
          "type": "uint256"
        }
      ],
      "name": "Approval",
      "type": "event"
    },
    {
      "anonymous": false,
      "inputs": [
        {
          "indexed": true,
          "internalType": "address",
          "name": "owner",
          "type": "address"
        },
        {
          "indexed": true,
          "internalType": "address",
          "name": "operator",
          "type": "address"
        },
        {
          "indexed": false,
          "internalType": "bool",
          "name": "approved",
          "type": "bool"
        }
      ],
      "name": "ApprovalForAll",
      "type": "event"
    },
    {
      "anonymous": false,
      "inputs": [
        {
          "indexed": false,
          "internalType": "address",
          "name": "oldOwner",
          "type": "address"
        },
        {
          "indexed": false,
          "internalType": "address",
          "name": "newOwner",
          "type": "address"
        }
      ],
      "name": "OwnershipTransfer",
      "type": "event"
    },
    {
      "anonymous": false,
      "inputs": [
        {
          "indexed": false,
          "internalType": "address",
          "name": "",
          "type": "address"
        }
      ],
      "name": "Paused",
      "type": "event"
    },
    {
      "anonymous": false,
      "inputs": [
        {
          "indexed": false,
          "internalType": "uint256",
          "name": "indexOfSolution",
          "type": "uint256"
        },
        {
          "indexed": false,
          "internalType": "address",
          "name": "ownerAddress",
          "type": "address"
        },
        {
          "indexed": false,
          "internalType": "bytes32",
          "name": "solutionHash",
          "type": "bytes32"
        }
      ],
      "name": "SolutionAdded",
      "type": "event"
    },
    {
      "anonymous": false,
      "inputs": [
        {
          "indexed": true,
          "internalType": "address",
          "name": "from",
          "type": "address"
        },
        {
          "indexed": true,
          "internalType": "address",
          "name": "to",
          "type": "address"
        },
        {
          "indexed": true,
          "internalType": "uint256",
          "name": "tokenId",
          "type": "uint256"
        }
      ],
      "name": "Transfer",
      "type": "event"
    },
    {
      "anonymous": false,
      "inputs": [
        {
          "indexed": false,
          "internalType": "address",
          "name": "",
          "type": "address"
        }
      ],
      "name": "Unpaused",
      "type": "event"
    },
    {
      "constant": false,
      "inputs": [
        {
          "internalType": "bytes32",
          "name": "_myid",
          "type": "bytes32"
        },
        {
          "internalType": "string",
          "name": "_result",
          "type": "string"
        }
      ],
      "name": "__callback",
      "outputs": [],
      "payable": false,
      "stateMutability": "nonpayable",
      "type": "function"
    },
    {
      "constant": false,
      "inputs": [
        {
          "internalType": "bytes32",
          "name": "_myid",
          "type": "bytes32"
        },
        {
          "internalType": "string",
          "name": "_result",
          "type": "string"
        },
        {
          "internalType": "bytes",
          "name": "_proof",
          "type": "bytes"
        }
      ],
      "name": "__callback",
      "outputs": [],
      "payable": false,
      "stateMutability": "nonpayable",
      "type": "function"
    },
    {
      "constant": false,
      "inputs": [
        {
          "internalType": "address",
          "name": "to",
          "type": "address"
        },
        {
          "internalType": "uint256",
          "name": "tokenId",
          "type": "uint256"
        }
      ],
      "name": "approve",
      "outputs": [],
      "payable": false,
      "stateMutability": "nonpayable",
      "type": "function"
    },
    {
      "constant": true,
      "inputs": [
        {
          "internalType": "address",
          "name": "owner",
          "type": "address"
        }
      ],
      "name": "balanceOf",
      "outputs": [
        {
          "internalType": "uint256",
          "name": "",
          "type": "uint256"
        }
      ],
      "payable": false,
      "stateMutability": "view",
      "type": "function"
    },
    {
      "constant": true,
      "inputs": [],
      "name": "baseTokenURI",
      "outputs": [
        {
          "internalType": "string",
          "name": "",
          "type": "string"
        }
      ],
      "payable": false,
      "stateMutability": "view",
      "type": "function"
    },
    {
      "constant": true,
      "inputs": [
        {
          "internalType": "uint256",
          "name": "tokenId",
          "type": "uint256"
        }
      ],
      "name": "getApproved",
      "outputs": [
        {
          "internalType": "address",
          "name": "",
          "type": "address"
        }
      ],
      "payable": false,
      "stateMutability": "view",
      "type": "function"
    },
    {
      "constant": true,
      "inputs": [
        {
          "internalType": "address",
          "name": "owner",
          "type": "address"
        },
        {
          "internalType": "address",
          "name": "operator",
          "type": "address"
        }
      ],
      "name": "isApprovedForAll",
      "outputs": [
        {
          "internalType": "bool",
          "name": "",
          "type": "bool"
        }
      ],
      "payable": false,
      "stateMutability": "view",
      "type": "function"
    },
    {
      "constant": true,
      "inputs": [],
      "name": "name",
      "outputs": [
        {
          "internalType": "string",
          "name": "",
          "type": "string"
        }
      ],
      "payable": false,
      "stateMutability": "view",
      "type": "function"
    },
    {
      "constant": true,
      "inputs": [],
      "name": "owner",
      "outputs": [
        {
          "internalType": "address",
          "name": "",
          "type": "address"
        }
      ],
      "payable": false,
      "stateMutability": "view",
      "type": "function"
    },
    {
      "constant": true,
      "inputs": [
        {
          "internalType": "uint256",
          "name": "tokenId",
          "type": "uint256"
        }
      ],
      "name": "ownerOf",
      "outputs": [
        {
          "internalType": "address",
          "name": "",
          "type": "address"
        }
      ],
      "payable": false,
      "stateMutability": "view",
      "type": "function"
    },
    {
      "constant": false,
      "inputs": [
        {
          "internalType": "address",
          "name": "from",
          "type": "address"
        },
        {
          "internalType": "address",
          "name": "to",
          "type": "address"
        },
        {
          "internalType": "uint256",
          "name": "tokenId",
          "type": "uint256"
        }
      ],
      "name": "safeTransferFrom",
      "outputs": [],
      "payable": false,
      "stateMutability": "nonpayable",
      "type": "function"
    },
    {
      "constant": false,
      "inputs": [
        {
          "internalType": "address",
          "name": "from",
          "type": "address"
        },
        {
          "internalType": "address",
          "name": "to",
          "type": "address"
        },
        {
          "internalType": "uint256",
          "name": "tokenId",
          "type": "uint256"
        },
        {
          "internalType": "bytes",
          "name": "_data",
          "type": "bytes"
        }
      ],
      "name": "safeTransferFrom",
      "outputs": [],
      "payable": false,
      "stateMutability": "nonpayable",
      "type": "function"
    },
    {
      "constant": false,
      "inputs": [
        {
          "internalType": "address",
          "name": "to",
          "type": "address"
        },
        {
          "internalType": "bool",
          "name": "approved",
          "type": "bool"
        }
      ],
      "name": "setApprovalForAll",
      "outputs": [],
      "payable": false,
      "stateMutability": "nonpayable",
      "type": "function"
    },
    {
      "constant": false,
      "inputs": [
        {
          "internalType": "bool",
          "name": "newPauseValue",
          "type": "bool"
        }
      ],
      "name": "setPaused",
      "outputs": [],
      "payable": false,
      "stateMutability": "nonpayable",
      "type": "function"
    },
    {
      "constant": true,
      "inputs": [
        {
          "internalType": "bytes4",
          "name": "interfaceId",
          "type": "bytes4"
        }
      ],
      "name": "supportsInterface",
      "outputs": [
        {
          "internalType": "bool",
          "name": "",
          "type": "bool"
        }
      ],
      "payable": false,
      "stateMutability": "view",
      "type": "function"
    },
    {
      "constant": true,
      "inputs": [],
      "name": "symbol",
      "outputs": [
        {
          "internalType": "string",
          "name": "",
          "type": "string"
        }
      ],
      "payable": false,
      "stateMutability": "view",
      "type": "function"
    },
    {
      "constant": true,
      "inputs": [
        {
          "internalType": "uint256",
          "name": "index",
          "type": "uint256"
        }
      ],
      "name": "tokenByIndex",
      "outputs": [
        {
          "internalType": "uint256",
          "name": "",
          "type": "uint256"
        }
      ],
      "payable": false,
      "stateMutability": "view",
      "type": "function"
    },
    {
      "constant": true,
      "inputs": [
        {
          "internalType": "address",
          "name": "owner",
          "type": "address"
        },
        {
          "internalType": "uint256",
          "name": "index",
          "type": "uint256"
        }
      ],
      "name": "tokenOfOwnerByIndex",
      "outputs": [
        {
          "internalType": "uint256",
          "name": "",
          "type": "uint256"
        }
      ],
      "payable": false,
      "stateMutability": "view",
      "type": "function"
    },
    {
      "constant": true,
      "inputs": [
        {
          "internalType": "uint256",
          "name": "tokenId",
          "type": "uint256"
        }
      ],
      "name": "tokenURI",
      "outputs": [
        {
          "internalType": "string",
          "name": "",
          "type": "string"
        }
      ],
      "payable": false,
      "stateMutability": "view",
      "type": "function"
    },
    {
      "constant": true,
      "inputs": [],
      "name": "totalSupply",
      "outputs": [
        {
          "internalType": "uint256",
          "name": "",
          "type": "uint256"
        }
      ],
      "payable": false,
      "stateMutability": "view",
      "type": "function"
    },
    {
      "constant": false,
      "inputs": [
        {
          "internalType": "address",
          "name": "from",
          "type": "address"
        },
        {
          "internalType": "address",
          "name": "to",
          "type": "address"
        },
        {
          "internalType": "uint256",
          "name": "tokenId",
          "type": "uint256"
        }
      ],
      "name": "transferFrom",
      "outputs": [],
      "payable": false,
      "stateMutability": "nonpayable",
      "type": "function"
    },
    {
      "constant": false,
      "inputs": [
        {
          "internalType": "address",
          "name": "newOwner",
          "type": "address"
        }
      ],
      "name": "transferOwnership",
      "outputs": [],
      "payable": false,
      "stateMutability": "nonpayable",
      "type": "function"
    },
    {
      "constant": false,
      "inputs": [
        {
          "internalType": "address",
          "name": "ownerAddress",
          "type": "address"
        },
        {
          "internalType": "bytes32",
          "name": "solutionHash",
          "type": "bytes32"
        }
      ],
      "name": "addSolution",
      "outputs": [],
      "payable": false,
      "stateMutability": "nonpayable",
      "type": "function"
    },
    {
      "constant": false,
      "inputs": [
        {
          "internalType": "address",
          "name": "to",
          "type": "address"
        },
        {
          "internalType": "uint256",
          "name": "tokenId",
          "type": "uint256"
        }
      ],
      "name": "mint",
      "outputs": [
        {
          "internalType": "bool",
          "name": "",
          "type": "bool"
        }
      ],
      "payable": false,
      "stateMutability": "nonpayable",
      "type": "function"
    },
    {
      "constant": false,
      "inputs": [
        {
          "components": [
            {
              "components": [
                {
                  "internalType": "uint256",
                  "name": "X",
                  "type": "uint256"
                },
                {
                  "internalType": "uint256",
                  "name": "Y",
                  "type": "uint256"
                }
              ],
              "internalType": "struct SharedProof.G1Point",
              "name": "a",
              "type": "tuple"
            },
            {
              "components": [
                {
                  "internalType": "uint256[2]",
                  "name": "X",
                  "type": "uint256[2]"
                },
                {
                  "internalType": "uint256[2]",
                  "name": "Y",
                  "type": "uint256[2]"
                }
              ],
              "internalType": "struct SharedProof.G2Point",
              "name": "b",
              "type": "tuple"
            },
            {
              "components": [
                {
                  "internalType": "uint256",
                  "name": "X",
                  "type": "uint256"
                },
                {
                  "internalType": "uint256",
                  "name": "Y",
                  "type": "uint256"
                }
              ],
              "internalType": "struct SharedProof.G1Point",
              "name": "c",
              "type": "tuple"
            }
          ],
          "internalType": "struct SharedProof.Proof",
          "name": "proof",
          "type": "tuple"
        },
        {
          "internalType": "uint256[2]",
          "name": "input",
          "type": "uint256[2]"
        },
        {
          "internalType": "address",
          "name": "to",
          "type": "address"
        },
        {
          "internalType": "uint256",
          "name": "tokenId",
          "type": "uint256"
        }
      ],
      "name": "mint",
      "outputs": [
        {
          "internalType": "bool",
          "name": "",
          "type": "bool"
        }
      ],
      "payable": false,
      "stateMutability": "nonpayable",
      "type": "function"
    }
  ],
  "bytecode": "0x60806040523480156200001157600080fd5b506040516200430e3803806200430e833981810160405262000037919081019062000400565b818181816040518060600160405280603f8152602001620042cf603f91397f22500af037c600dd7b720644ab6e358635085601d9ac508ad83eb2d6b2d729ca6000809054906101000a900473ffffffffffffffffffffffffffffffffffffffff1633604051620000a9929190620004c7565b60405180910390a1336000806101000a81548173ffffffffffffffffffffffffffffffffffffffff021916908373ffffffffffffffffffffffffffffffffffffffff16021790555060008060146101000a81548160ff0219169083151502179055507f5db9ee0a495bf2e6ff9c91a7834c1ba4fdd244a5e8aa4e537bd38aeae4b073aa336040516200013c9190620004aa565b60405180910390a16200015c6301ffc9a760e01b6200023e60201b60201c565b620001746380ac58cd60e01b6200023e60201b60201c565b6200018c63780e9d6360e01b6200023e60201b60201c565b82600f9080519060200190620001a4929190620002de565b508160109080519060200190620001bd929190620002de565b508060119080519060200190620001d6929190620002de565b50620001ef635b5e139f60e01b6200023e60201b60201c565b505050505082601360006101000a81548173ffffffffffffffffffffffffffffffffffffffff021916908373ffffffffffffffffffffffffffffffffffffffff1602179055505050506200060f565b63ffffffff60e01b817bffffffffffffffffffffffffffffffffffffffffffffffffffffffff191614156200027257600080fd5b6001806000837bffffffffffffffffffffffffffffffffffffffffffffffffffffffff19167bffffffffffffffffffffffffffffffffffffffffffffffffffffffff1916815260200190815260200160002060006101000a81548160ff02191690831515021790555050565b828054600181600116156101000203166002900490600052602060002090601f016020900481019282601f106200032157805160ff191683800117855562000352565b8280016001018555821562000352579182015b828111156200035157825182559160200191906001019062000334565b5b50905062000361919062000365565b5090565b6200038a91905b80821115620003865760008160009055506001016200036c565b5090565b90565b6000815190506200039e81620005f5565b92915050565b600082601f830112620003b657600080fd5b8151620003cd620003c78262000522565b620004f4565b91508082526020830160208301858383011115620003ea57600080fd5b620003f7838284620005bf565b50505092915050565b6000806000606084860312156200041657600080fd5b600062000426868287016200038d565b935050602084015167ffffffffffffffff8111156200044457600080fd5b6200045286828701620003a4565b925050604084015167ffffffffffffffff8111156200047057600080fd5b6200047e86828701620003a4565b9150509250925092565b620004938162000583565b82525050565b620004a4816200054f565b82525050565b6000602082019050620004c1600083018462000488565b92915050565b6000604082019050620004de600083018562000499565b620004ed602083018462000488565b9392505050565b6000604051905081810181811067ffffffffffffffff821117156200051857600080fd5b8060405250919050565b600067ffffffffffffffff8211156200053a57600080fd5b601f19601f8301169050602081019050919050565b60006200055c8262000563565b9050919050565b600073ffffffffffffffffffffffffffffffffffffffff82169050919050565b6000620005908262000597565b9050919050565b6000620005a482620005ab565b9050919050565b6000620005b88262000563565b9050919050565b60005b83811015620005df578082015181840152602081019050620005c2565b83811115620005ef576000848401525b50505050565b62000600816200054f565b81146200060c57600080fd5b50565b613cb0806200061f6000396000f3fe608060405234801561001057600080fd5b50600436106101735760003560e01c806342842e0e116100de57806395d89b4111610097578063c87b56dd11610071578063c87b56dd1461046c578063d547cfb71461049c578063e985e9c5146104ba578063f2fde38b146104ea57610173565b806395d89b4114610416578063a22cb46514610434578063b88d4fde1461045057610173565b806342842e0e1461031c5780634f6ccce7146103385780635abee223146103685780636352211e1461039857806370a08231146103c85780638da5cb5b146103f857610173565b806318160ddd1161013057806318160ddd1461024a57806323b872dd1461026857806327dc297e146102845780632f745c59146102a057806338bbfa50146102d057806340c10f19146102ec57610173565b806301ffc9a71461017857806306fdde03146101a8578063081812fc146101c6578063095ea7b3146101f6578063106e426e1461021257806316c38b3c1461022e575b600080fd5b610192600480360361018d9190810190612e12565b610506565b60405161019f9190613749565b60405180910390f35b6101b061056e565b6040516101bd9190613764565b60405180910390f35b6101e060048036036101db9190810190612ecb565b610610565b6040516101ed919061369e565b60405180910390f35b610210600480360361020b9190810190612cb1565b61064d565b005b61022c60048036036102279190810190612c75565b61088c565b005b61024860048036036102439190810190612ced565b610aa2565b005b610252610c2d565b60405161025f9190613931565b60405180910390f35b610282600480360361027d9190810190612b6f565b610c3a565b005b61029e60048036036102999190810190612d3f565b610c93565b005b6102ba60048036036102b59190810190612cb1565b610cd6565b6040516102c79190613931565b60405180910390f35b6102ea60048036036102e59190810190612d93565b610d49565b005b61030660048036036103019190810190612cb1565b610d4e565b6040516103139190613749565b60405180910390f35b61033660048036036103319190810190612b6f565b610dfc565b005b610352600480360361034d9190810190612ecb565b610e1c565b60405161035f9190613931565b60405180910390f35b610382600480360361037d9190810190612e64565b610e50565b60405161038f9190613749565b60405180910390f35b6103b260048036036103ad9190810190612ecb565b611009565b6040516103bf919061369e565b60405180910390f35b6103e260048036036103dd9190810190612b0a565b611046565b6040516103ef9190613931565b60405180910390f35b610400611096565b60405161040d919061369e565b60405180910390f35b61041e6110bf565b60405161042b9190613764565b60405180910390f35b61044e60048036036104499190810190612c39565b611161565b005b61046a60048036036104659190810190612bbe565b611297565b005b61048660048036036104819190810190612ecb565b6112bd565b6040516104939190613764565b60405180910390f35b6104a4611384565b6040516104b19190613764565b60405180910390f35b6104d460048036036104cf9190810190612b33565b611426565b6040516104e19190613749565b60405180910390f35b61050460048036036104ff9190810190612b0a565b6114ba565b005b600060016000837bffffffffffffffffffffffffffffffffffffffffffffffffffffffff19167bffffffffffffffffffffffffffffffffffffffffffffffffffffffff1916815260200190815260200160002060009054906101000a900460ff169050919050565b6060600f8054600181600116156101000203166002900480601f0160208091040260200160405190810160405280929190818152602001828054600181600116156101000203166002900480156106065780601f106105db57610100808354040283529160200191610606565b820191906000526020600020905b8154815290600101906020018083116105e957829003601f168201915b5050505050905090565b60006003600083815260200190815260200160002060009054906101000a900473ffffffffffffffffffffffffffffffffffffffff169050919050565b6002600082815260200190815260200160002060009054906101000a900473ffffffffffffffffffffffffffffffffffffffff1673ffffffffffffffffffffffffffffffffffffffff168273ffffffffffffffffffffffffffffffffffffffff1614156106ef576040517f08c379a00000000000000000000000000000000000000000000000000000000081526004016106e690613806565b60405180910390fd5b6106f7611096565b73ffffffffffffffffffffffffffffffffffffffff163373ffffffffffffffffffffffffffffffffffffffff16148061076957506107686002600083815260200190815260200160002060009054906101000a900473ffffffffffffffffffffffffffffffffffffffff1633611426565b5b6107a8576040517f08c379a000000000000000000000000000000000000000000000000000000000815260040161079f90613886565b60405180910390fd5b816003600083815260200190815260200160002060006101000a81548173ffffffffffffffffffffffffffffffffffffffff021916908373ffffffffffffffffffffffffffffffffffffffff160217905550808273ffffffffffffffffffffffffffffffffffffffff166002600084815260200190815260200160002060009054906101000a900473ffffffffffffffffffffffffffffffffffffffff1673ffffffffffffffffffffffffffffffffffffffff167f8c5be1e5ebec7d5bd14f71427d1e84f3dd0314c0f7b2291e5b200ac8c7c3b92560405160405180910390a45050565b6000809054906101000a900473ffffffffffffffffffffffffffffffffffffffff1673ffffffffffffffffffffffffffffffffffffffff163373ffffffffffffffffffffffffffffffffffffffff161461091b576040517f08c379a000000000000000000000000000000000000000000000000000000000815260040161091290613846565b60405180910390fd5b600060016014805490500190506109306126e3565b60405180606001604052808381526020018573ffffffffffffffffffffffffffffffffffffffff168152602001848152509050601481908060018154018082558091505090600182039060005260206000209060030201600090919290919091506000820151816000015560208201518160010160006101000a81548173ffffffffffffffffffffffffffffffffffffffff021916908373ffffffffffffffffffffffffffffffffffffffff1602179055506040820151816002015550505080601560008581526020019081526020016000206000820151816000015560208201518160010160006101000a81548173ffffffffffffffffffffffffffffffffffffffff021916908373ffffffffffffffffffffffffffffffffffffffff160217905550604082015181600201559050507f6bc6afc76c0b332ba90fee021156bac0d12ed376d185f1615de6e5c4774f21d3828585604051610a949392919061394c565b60405180910390a150505050565b6000809054906101000a900473ffffffffffffffffffffffffffffffffffffffff1673ffffffffffffffffffffffffffffffffffffffff163373ffffffffffffffffffffffffffffffffffffffff1614610b31576040517f08c379a0000000000000000000000000000000000000000000000000000000008152600401610b2890613846565b60405180910390fd5b801515600060149054906101000a900460ff1615151415610b87576040517f08c379a0000000000000000000000000000000000000000000000000000000008152600401610b7e90613826565b60405180910390fd5b80600060146101000a81548160ff021916908315150217905550600060149054906101000a900460ff1615610bf2577f62e78cea01bee320cd4e420270b5ea74000d11b0c9f74754ebdbfc544b05a25833604051610be591906136b9565b60405180910390a1610c2a565b7f5db9ee0a495bf2e6ff9c91a7834c1ba4fdd244a5e8aa4e537bd38aeae4b073aa33604051610c2191906136b9565b60405180910390a15b50565b6000600880549050905090565b610c443382611656565b610c83576040517f08c379a0000000000000000000000000000000000000000000000000000000008152600401610c7a90613786565b60405180910390fd5b610c8e8383836116eb565b505050565b610cd2828260006040519080825280601f01601f191660200182016040528015610ccc5781602001600182028038833980820191505090505b50610d49565b5050565b6000610ce183611046565b8210610cec57600080fd5b600660008473ffffffffffffffffffffffffffffffffffffffff1673ffffffffffffffffffffffffffffffffffffffff1681526020019081526020016000208281548110610d3657fe5b9060005260206000200154905092915050565b505050565b60008060009054906101000a900473ffffffffffffffffffffffffffffffffffffffff1673ffffffffffffffffffffffffffffffffffffffff163373ffffffffffffffffffffffffffffffffffffffff1614610ddf576040517f08c379a0000000000000000000000000000000000000000000000000000000008152600401610dd690613846565b60405180910390fd5b610de9838361170f565b610df282611730565b6001905092915050565b610e1783838360405180602001604052806000815250611297565b505050565b6000610e26610c2d565b8210610e3157600080fd5b60088281548110610e3e57fe5b90600052602060002001549050919050565b60008060009054906101000a900473ffffffffffffffffffffffffffffffffffffffff1673ffffffffffffffffffffffffffffffffffffffff163373ffffffffffffffffffffffffffffffffffffffff1614610ee1576040517f08c379a0000000000000000000000000000000000000000000000000000000008152600401610ed890613846565b60405180910390fd5b60008560000151600001518660000151602001518760200151600001518860200151602001518960400151600001518a60400151602001518a604051602001610f30979695949392919061361d565b6040516020818303038152906040528051906020012090506000601560008381526020019081526020016000206000015414610fa1576040517f08c379a0000000000000000000000000000000000000000000000000000000008152600401610f98906137e6565b60405180910390fd5b610fab8686611848565b610fea576040517f08c379a0000000000000000000000000000000000000000000000000000000008152600401610fe1906137c6565b60405180910390fd5b610ff4848261088c565b610ffe8484610d4e565b915050949350505050565b60006002600083815260200190815260200160002060009054906101000a900473ffffffffffffffffffffffffffffffffffffffff169050919050565b600061108f600460008473ffffffffffffffffffffffffffffffffffffffff1673ffffffffffffffffffffffffffffffffffffffff1681526020019081526020016000206118ff565b9050919050565b60008060009054906101000a900473ffffffffffffffffffffffffffffffffffffffff16905090565b606060108054600181600116156101000203166002900480601f0160208091040260200160405190810160405280929190818152602001828054600181600116156101000203166002900480156111575780601f1061112c57610100808354040283529160200191611157565b820191906000526020600020905b81548152906001019060200180831161113a57829003601f168201915b5050505050905090565b3373ffffffffffffffffffffffffffffffffffffffff168273ffffffffffffffffffffffffffffffffffffffff16141561119a57600080fd5b80600560003373ffffffffffffffffffffffffffffffffffffffff1673ffffffffffffffffffffffffffffffffffffffff16815260200190815260200160002060008473ffffffffffffffffffffffffffffffffffffffff1673ffffffffffffffffffffffffffffffffffffffff16815260200190815260200160002060006101000a81548160ff0219169083151502179055508173ffffffffffffffffffffffffffffffffffffffff163373ffffffffffffffffffffffffffffffffffffffff167f17307eab39ab6107e8899845ad3d59bd9653f200f220920489ca2b5937696c318360405161128b9190613749565b60405180910390a35050565b6112a2848484610c3a565b6112ae8484848461190d565b6112b757600080fd5b50505050565b60606112c882611a24565b6112d157600080fd5b601260008381526020019081526020016000208054600181600116156101000203166002900480601f0160208091040260200160405190810160405280929190818152602001828054600181600116156101000203166002900480156113785780601f1061134d57610100808354040283529160200191611378565b820191906000526020600020905b81548152906001019060200180831161135b57829003601f168201915b50505050509050919050565b606060118054600181600116156101000203166002900480601f01602080910402602001604051908101604052809291908181526020018280546001816001161561010002031660029004801561141c5780601f106113f15761010080835404028352916020019161141c565b820191906000526020600020905b8154815290600101906020018083116113ff57829003601f168201915b5050505050905090565b6000600560008473ffffffffffffffffffffffffffffffffffffffff1673ffffffffffffffffffffffffffffffffffffffff16815260200190815260200160002060008373ffffffffffffffffffffffffffffffffffffffff1673ffffffffffffffffffffffffffffffffffffffff16815260200190815260200160002060009054906101000a900460ff16905092915050565b6000809054906101000a900473ffffffffffffffffffffffffffffffffffffffff1673ffffffffffffffffffffffffffffffffffffffff163373ffffffffffffffffffffffffffffffffffffffff1614611549576040517f08c379a000000000000000000000000000000000000000000000000000000000815260040161154090613846565b60405180910390fd5b600073ffffffffffffffffffffffffffffffffffffffff168173ffffffffffffffffffffffffffffffffffffffff1614156115b9576040517f08c379a00000000000000000000000000000000000000000000000000000000081526004016115b090613866565b60405180910390fd5b7f22500af037c600dd7b720644ab6e358635085601d9ac508ad83eb2d6b2d729ca6000809054906101000a900473ffffffffffffffffffffffffffffffffffffffff168260405161160b929190613720565b60405180910390a1806000806101000a81548173ffffffffffffffffffffffffffffffffffffffff021916908373ffffffffffffffffffffffffffffffffffffffff16021790555050565b60008061166283611009565b90508073ffffffffffffffffffffffffffffffffffffffff168473ffffffffffffffffffffffffffffffffffffffff1614806116d157508373ffffffffffffffffffffffffffffffffffffffff166116b984610610565b73ffffffffffffffffffffffffffffffffffffffff16145b806116e257506116e18185611426565b5b91505092915050565b6116f6838383611a96565b6117008382611ccb565b61170a8282611e69565b505050565b6117198282611f30565b6117238282611e69565b61172c8161213b565b5050565b600073ffffffffffffffffffffffffffffffffffffffff1661175182611009565b73ffffffffffffffffffffffffffffffffffffffff16141561177257600080fd5b61181e60118054600181600116156101000203166002900480601f01602080910402602001604051908101604052809291908181526020018280546001816001161561010002031660029004801561180b5780601f106117e05761010080835404028352916020019161180b565b820191906000526020600020905b8154815290600101906020018083116117ee57829003601f168201915b505050505061181983612187565b6122b4565b60126000838152602001908152602001600020908051906020019061184492919061271d565b5050565b6000601360009054906101000a900473ffffffffffffffffffffffffffffffffffffffff1673ffffffffffffffffffffffffffffffffffffffff166343cd76fc84846040518363ffffffff1660e01b81526004016118a7929190613906565b60206040518083038186803b1580156118bf57600080fd5b505afa1580156118d3573d6000803e3d6000fd5b505050506040513d601f19601f820116820180604052506118f79190810190612d16565b905092915050565b600081600001549050919050565b600061192e8473ffffffffffffffffffffffffffffffffffffffff166122f8565b61193b5760019050611a1c565b60008473ffffffffffffffffffffffffffffffffffffffff1663150b7a02338887876040518563ffffffff1660e01b815260040161197c94939291906136d4565b602060405180830381600087803b15801561199657600080fd5b505af11580156119aa573d6000803e3d6000fd5b505050506040513d601f19601f820116820180604052506119ce9190810190612e3b565b905063150b7a0260e01b7bffffffffffffffffffffffffffffffffffffffffffffffffffffffff1916817bffffffffffffffffffffffffffffffffffffffffffffffffffffffff1916149150505b949350505050565b6000806002600084815260200190815260200160002060009054906101000a900473ffffffffffffffffffffffffffffffffffffffff169050600073ffffffffffffffffffffffffffffffffffffffff168173ffffffffffffffffffffffffffffffffffffffff161415915050919050565b6002600082815260200190815260200160002060009054906101000a900473ffffffffffffffffffffffffffffffffffffffff1673ffffffffffffffffffffffffffffffffffffffff168373ffffffffffffffffffffffffffffffffffffffff1614611b37576040517f08c379a0000000000000000000000000000000000000000000000000000000008152600401611b2e906138c6565b60405180910390fd5b600073ffffffffffffffffffffffffffffffffffffffff168273ffffffffffffffffffffffffffffffffffffffff161415611ba7576040517f08c379a0000000000000000000000000000000000000000000000000000000008152600401611b9e906137a6565b60405180910390fd5b6003600082815260200190815260200160002060006101000a81549073ffffffffffffffffffffffffffffffffffffffff0219169055611c24600460008573ffffffffffffffffffffffffffffffffffffffff1673ffffffffffffffffffffffffffffffffffffffff168152602001908152602001600020612343565b611c6b600460008473ffffffffffffffffffffffffffffffffffffffff1673ffffffffffffffffffffffffffffffffffffffff168152602001908152602001600020612366565b808273ffffffffffffffffffffffffffffffffffffffff168473ffffffffffffffffffffffffffffffffffffffff167fddf252ad1be2c89b69c2b068fc378daa952ba7f163c4a11628f55a4df523b3ef60405160405180910390a4505050565b6000611d236001600660008673ffffffffffffffffffffffffffffffffffffffff1673ffffffffffffffffffffffffffffffffffffffff1681526020019081526020016000208054905061237c90919063ffffffff16565b9050600060076000848152602001908152602001600020549050818114611e10576000600660008673ffffffffffffffffffffffffffffffffffffffff1673ffffffffffffffffffffffffffffffffffffffff1681526020019081526020016000208381548110611d9057fe5b9060005260206000200154905080600660008773ffffffffffffffffffffffffffffffffffffffff1673ffffffffffffffffffffffffffffffffffffffff1681526020019081526020016000208381548110611de857fe5b9060005260206000200181905550816007600083815260200190815260200160002081905550505b600660008573ffffffffffffffffffffffffffffffffffffffff1673ffffffffffffffffffffffffffffffffffffffff168152602001908152602001600020805480919060019003611e62919061279d565b5050505050565b600660008373ffffffffffffffffffffffffffffffffffffffff1673ffffffffffffffffffffffffffffffffffffffff168152602001908152602001600020805490506007600083815260200190815260200160002081905550600660008373ffffffffffffffffffffffffffffffffffffffff1673ffffffffffffffffffffffffffffffffffffffff1681526020019081526020016000208190806001815401808255809150509060018203906000526020600020016000909192909190915055505050565b600073ffffffffffffffffffffffffffffffffffffffff168273ffffffffffffffffffffffffffffffffffffffff161415611fa0576040517f08c379a0000000000000000000000000000000000000000000000000000000008152600401611f97906138e6565b60405180910390fd5b600073ffffffffffffffffffffffffffffffffffffffff166002600083815260200190815260200160002060009054906101000a900473ffffffffffffffffffffffffffffffffffffffff1673ffffffffffffffffffffffffffffffffffffffff1614612042576040517f08c379a0000000000000000000000000000000000000000000000000000000008152600401612039906138a6565b60405180910390fd5b816002600083815260200190815260200160002060006101000a81548173ffffffffffffffffffffffffffffffffffffffff021916908373ffffffffffffffffffffffffffffffffffffffff1602179055506120db600460008473ffffffffffffffffffffffffffffffffffffffff1673ffffffffffffffffffffffffffffffffffffffff168152602001908152602001600020612366565b808273ffffffffffffffffffffffffffffffffffffffff16600073ffffffffffffffffffffffffffffffffffffffff167fddf252ad1be2c89b69c2b068fc378daa952ba7f163c4a11628f55a4df523b3ef60405160405180910390a45050565b6008805490506009600083815260200190815260200160002081905550600881908060018154018082558091505090600182039060005260206000200160009091929091909150555050565b606060008214156121cf576040518060400160405280600181526020017f300000000000000000000000000000000000000000000000000000000000000081525090506122af565b600082905060005b600082146121f9578080600101915050600a82816121f157fe5b0491506121d7565b6060816040519080825280601f01601f19166020018201604052801561222e5781602001600182028038833980820191505090505b50905060006001830390505b600086146122a757600a868161224c57fe5b0660300160f81b8282806001900393508151811061226657fe5b60200101907effffffffffffffffffffffffffffffffffffffffffffffffffffffffffffff1916908160001a905350600a868161229f57fe5b04955061223a565b819450505050505b919050565b60606122f083836040518060200160405280600081525060405180602001604052806000815250604051806020016040528060008152506123c6565b905092915050565b60008060007fc5d2460186f7233c927e7db2dcc703c0e500b653ca82273b7bfad8045d85a47060001b9050833f915080821415801561233a57506000801b8214155b92505050919050565b61235b6001826000015461237c90919063ffffffff16565b816000018190555050565b6001816000016000828254019250508190555050565b60006123be83836040518060400160405280601e81526020017f536166654d6174683a207375627472616374696f6e206f766572666c6f770000815250612688565b905092915050565b6060808690506060869050606086905060608690506060869050606081518351855187518951010101016040519080825280601f01601f1916602001820160405280156124225781602001600182028038833980820191505090505b509050606081905060008090506000809050600090505b88518110156124a75788818151811061244e57fe5b602001015160f81c60f81b83838060010194508151811061246b57fe5b60200101907effffffffffffffffffffffffffffffffffffffffffffffffffffffffffffff1916908160001a9053508080600101915050612439565b600090505b875181101561251a578781815181106124c157fe5b602001015160f81c60f81b8383806001019450815181106124de57fe5b60200101907effffffffffffffffffffffffffffffffffffffffffffffffffffffffffffff1916908160001a90535080806001019150506124ac565b600090505b865181101561258d5786818151811061253457fe5b602001015160f81c60f81b83838060010194508151811061255157fe5b60200101907effffffffffffffffffffffffffffffffffffffffffffffffffffffffffffff1916908160001a905350808060010191505061251f565b600090505b8551811015612600578581815181106125a757fe5b602001015160f81c60f81b8383806001019450815181106125c457fe5b60200101907effffffffffffffffffffffffffffffffffffffffffffffffffffffffffffff1916908160001a9053508080600101915050612592565b600090505b84518110156126735784818151811061261a57fe5b602001015160f81c60f81b83838060010194508151811061263757fe5b60200101907effffffffffffffffffffffffffffffffffffffffffffffffffffffffffffff1916908160001a9053508080600101915050612605565b82995050505050505050505095945050505050565b60008383111582906126d0576040517f08c379a00000000000000000000000000000000000000000000000000000000081526004016126c79190613764565b60405180910390fd5b5060008385039050809150509392505050565b604051806060016040528060008152602001600073ffffffffffffffffffffffffffffffffffffffff168152602001600080191681525090565b828054600181600116156101000203166002900490600052602060002090601f016020900481019282601f1061275e57805160ff191683800117855561278c565b8280016001018555821561278c579182015b8281111561278b578251825591602001919060010190612770565b5b50905061279991906127c9565b5090565b8154818355818111156127c4578183600052602060002091820191016127c391906127c9565b5b505050565b6127eb91905b808211156127e75760008160009055506001016127cf565b5090565b90565b6000813590506127fd81613bfa565b92915050565b600082601f83011261281457600080fd5b6002612827612822826139b0565b613983565b9150818385602084028201111561283d57600080fd5b60005b8381101561286d57816128538882612af5565b845260208401935060208301925050600181019050612840565b5050505092915050565b600082601f83011261288857600080fd5b600261289b612896826139d2565b613983565b915081838560208402820111156128b157600080fd5b60005b838110156128e157816128c78882612af5565b8452602084019350602083019250506001810190506128b4565b5050505092915050565b6000813590506128fa81613c11565b92915050565b60008151905061290f81613c11565b92915050565b60008135905061292481613c28565b92915050565b60008135905061293981613c3f565b92915050565b60008151905061294e81613c3f565b92915050565b600082601f83011261296557600080fd5b8135612978612973826139f4565b613983565b9150808252602083016020830185838301111561299457600080fd5b61299f838284613b9d565b50505092915050565b600082601f8301126129b957600080fd5b81356129cc6129c782613a20565b613983565b915080825260208301602083018583830111156129e857600080fd5b6129f3838284613b9d565b50505092915050565b600060408284031215612a0e57600080fd5b612a186040613983565b90506000612a2884828501612af5565b6000830152506020612a3c84828501612af5565b60208301525092915050565b600060808284031215612a5a57600080fd5b612a646040613983565b90506000612a7484828501612803565b6000830152506040612a8884828501612803565b60208301525092915050565b60006101008284031215612aa757600080fd5b612ab16060613983565b90506000612ac1848285016129fc565b6000830152506040612ad584828501612a48565b60208301525060c0612ae9848285016129fc565b60408301525092915050565b600081359050612b0481613c56565b92915050565b600060208284031215612b1c57600080fd5b6000612b2a848285016127ee565b91505092915050565b60008060408385031215612b4657600080fd5b6000612b54858286016127ee565b9250506020612b65858286016127ee565b9150509250929050565b600080600060608486031215612b8457600080fd5b6000612b92868287016127ee565b9350506020612ba3868287016127ee565b9250506040612bb486828701612af5565b9150509250925092565b60008060008060808587031215612bd457600080fd5b6000612be2878288016127ee565b9450506020612bf3878288016127ee565b9350506040612c0487828801612af5565b925050606085013567ffffffffffffffff811115612c2157600080fd5b612c2d87828801612954565b91505092959194509250565b60008060408385031215612c4c57600080fd5b6000612c5a858286016127ee565b9250506020612c6b858286016128eb565b9150509250929050565b60008060408385031215612c8857600080fd5b6000612c96858286016127ee565b9250506020612ca785828601612915565b9150509250929050565b60008060408385031215612cc457600080fd5b6000612cd2858286016127ee565b9250506020612ce385828601612af5565b9150509250929050565b600060208284031215612cff57600080fd5b6000612d0d848285016128eb565b91505092915050565b600060208284031215612d2857600080fd5b6000612d3684828501612900565b91505092915050565b60008060408385031215612d5257600080fd5b6000612d6085828601612915565b925050602083013567ffffffffffffffff811115612d7d57600080fd5b612d89858286016129a8565b9150509250929050565b600080600060608486031215612da857600080fd5b6000612db686828701612915565b935050602084013567ffffffffffffffff811115612dd357600080fd5b612ddf868287016129a8565b925050604084013567ffffffffffffffff811115612dfc57600080fd5b612e0886828701612954565b9150509250925092565b600060208284031215612e2457600080fd5b6000612e328482850161292a565b91505092915050565b600060208284031215612e4d57600080fd5b6000612e5b8482850161293f565b91505092915050565b6000806000806101808587031215612e7b57600080fd5b6000612e8987828801612a94565b945050610100612e9b87828801612877565b935050610140612ead878288016127ee565b925050610160612ebf87828801612af5565b91505092959194509250565b600060208284031215612edd57600080fd5b6000612eeb84828501612af5565b91505092915050565b6000612f0083836135d9565b60208301905092915050565b6000612f1883836135f7565b60208301905092915050565b612f2d81613b67565b82525050565b612f3c81613ae9565b82525050565b612f4b81613a6b565b612f558184613ab1565b9250612f6082613a56565b8060005b83811015612f91578151612f788782612ef4565b9650612f8383613a99565b925050600181019050612f64565b505050505050565b612fa281613a6b565b612fac8184613abc565b9250612fb782613a56565b8060005b83811015612fe8578151612fcf8782612f0c565b9650612fda83613a99565b925050600181019050612fbb565b505050505050565b612ff981613a60565b6130038184613aa6565b925061300e82613a4c565b8060005b8381101561303f5781516130268782612ef4565b965061303183613a8c565b925050600181019050613012565b505050505050565b61305081613a60565b61305a8184613abc565b925061306582613a4c565b8060005b8381101561309657815161307d8782612f0c565b965061308883613a8c565b925050600181019050613069565b505050505050565b6130a781613afb565b82525050565b6130b681613b07565b82525050565b60006130c782613a76565b6130d18185613ac7565b93506130e1818560208601613bac565b6130ea81613be9565b840191505092915050565b600061310082613a81565b61310a8185613ad8565b935061311a818560208601613bac565b61312381613be9565b840191505092915050565b600061313b603083613ad8565b91507f6d75737420626520617070726f766564206f7220626520746865206f776e657260008301527f206f662074686520636f6e7472616374000000000000000000000000000000006020830152604082019050919050565b60006131a1601f83613ad8565b91507f6e657720746f6b656e2061646472657373206d7573742062652076616c6964006000830152602082019050919050565b60006131e1602183613ad8565b91507f6d75737420626520612076616c69642070726f6f6620746f20636f6e74696e7560008301527f65000000000000000000000000000000000000000000000000000000000000006020830152604082019050919050565b6000613247601983613ad8565b91507f6d757374206265206120756e6971756520736f6c7574696f6e000000000000006000830152602082019050919050565b6000613287603683613ad8565b91507f74686520676976656e2061646472657373206d757374206e6f7420626520746860008301527f65206f776e6572206f662074686520746f6b656e4964000000000000000000006020830152604082019050919050565b60006132ed602583613ad8565b91507f70617573656420737461746520697320616c726561647920696e20746869732060008301527f73746174650000000000000000000000000000000000000000000000000000006020830152604082019050919050565b6000613353603d83613ad8565b91507f746869732066756e6374696f6e2063616e206f6e6c792062652063616c6c656460008301527f20627920746865206f776e6572206f662074686520636f6e74726163740000006020830152604082019050919050565b60006133b9601f83613ad8565b91507f6e6577206f776e65722063616e6e6f74206265203078302061646472657373006000830152602082019050919050565b60006133f9602f83613ad8565b91507f6d7573742062652063616c6c6564206279206f776e657220756e6c657373206160008301527f7070726f76656420666f7220616c6c00000000000000000000000000000000006020830152604082019050919050565b600061345f601683613ad8565b91507f746f6b656e496420616c726561647920657869737473000000000000000000006000830152602082019050919050565b600061349f602583613ad8565b91507f66726f6d2061646472657373206d757374206265206f776e6572206f6620746f60008301527f6b656e49640000000000000000000000000000000000000000000000000000006020830152604082019050919050565b6000613505601883613ad8565b91507f696e76616c696420616464726573732070726f766964656400000000000000006000830152602082019050919050565b60408201600082015161354e60008501826135d9565b50602082015161356160208501826135d9565b50505050565b60808201600082015161357d6000850182612ff0565b5060208201516135906040850182612ff0565b50505050565b610100820160008201516135ad6000850182613538565b5060208201516135c06040850182613567565b5060408201516135d360c0850182613538565b50505050565b6135e281613b5d565b82525050565b6135f181613b5d565b82525050565b61360081613b5d565b82525050565b61361761361282613b5d565b613bdf565b82525050565b6000613629828a613606565b6020820191506136398289613606565b6020820191506136498288613047565b6040820191506136598287613047565b6040820191506136698286613606565b6020820191506136798285613606565b6020820191506136898284612f99565b60408201915081905098975050505050505050565b60006020820190506136b36000830184612f33565b92915050565b60006020820190506136ce6000830184612f24565b92915050565b60006080820190506136e96000830187612f24565b6136f66020830186612f33565b61370360408301856135e8565b818103606083015261371581846130bc565b905095945050505050565b60006040820190506137356000830185612f33565b6137426020830184612f33565b9392505050565b600060208201905061375e600083018461309e565b92915050565b6000602082019050818103600083015261377e81846130f5565b905092915050565b6000602082019050818103600083015261379f8161312e565b9050919050565b600060208201905081810360008301526137bf81613194565b9050919050565b600060208201905081810360008301526137df816131d4565b9050919050565b600060208201905081810360008301526137ff8161323a565b9050919050565b6000602082019050818103600083015261381f8161327a565b9050919050565b6000602082019050818103600083015261383f816132e0565b9050919050565b6000602082019050818103600083015261385f81613346565b9050919050565b6000602082019050818103600083015261387f816133ac565b9050919050565b6000602082019050818103600083015261389f816133ec565b9050919050565b600060208201905081810360008301526138bf81613452565b9050919050565b600060208201905081810360008301526138df81613492565b9050919050565b600060208201905081810360008301526138ff816134f8565b9050919050565b60006101408201905061391c6000830185613596565b61392a610100830184612f42565b9392505050565b600060208201905061394660008301846135e8565b92915050565b600060608201905061396160008301866135e8565b61396e6020830185612f33565b61397b60408301846130ad565b949350505050565b6000604051905081810181811067ffffffffffffffff821117156139a657600080fd5b8060405250919050565b600067ffffffffffffffff8211156139c757600080fd5b602082029050919050565b600067ffffffffffffffff8211156139e957600080fd5b602082029050919050565b600067ffffffffffffffff821115613a0b57600080fd5b601f19601f8301169050602081019050919050565b600067ffffffffffffffff821115613a3757600080fd5b601f19601f8301169050602081019050919050565b6000819050919050565b6000819050919050565b600060029050919050565b600060029050919050565b600081519050919050565b600081519050919050565b6000602082019050919050565b6000602082019050919050565b600081905092915050565b600081905092915050565b600081905092915050565b600082825260208201905092915050565b600082825260208201905092915050565b6000613af482613b3d565b9050919050565b60008115159050919050565b6000819050919050565b60007fffffffff0000000000000000000000000000000000000000000000000000000082169050919050565b600073ffffffffffffffffffffffffffffffffffffffff82169050919050565b6000819050919050565b6000613b7282613b79565b9050919050565b6000613b8482613b8b565b9050919050565b6000613b9682613b3d565b9050919050565b82818337600083830152505050565b60005b83811015613bca578082015181840152602081019050613baf565b83811115613bd9576000848401525b50505050565b6000819050919050565b6000601f19601f8301169050919050565b613c0381613ae9565b8114613c0e57600080fd5b50565b613c1a81613afb565b8114613c2557600080fd5b50565b613c3181613b07565b8114613c3c57600080fd5b50565b613c4881613b11565b8114613c5357600080fd5b50565b613c5f81613b5d565b8114613c6a57600080fd5b5056fea365627a7a72315820c60f82d154019dc4ef6459b7aae482438afe45b90fc4a2957973ef86ff4a52366c6578706572696d656e74616cf564736f6c6343000510004068747470733a2f2f73332d75732d776573742d322e616d617a6f6e6177732e636f6d2f756461636974792d626c6f636b636861696e2f63617073746f6e652f",
  "source": "pragma solidity ^0.5.0;\npragma experimental ABIEncoderV2;\nimport \"./RealEstateMarketplaceToken.sol\";\n\nlibrary SharedProof {\n    struct G1Point {\n        uint256 X;\n        uint256 Y;\n    }\n    // Encoding of field elements is: X[0] * z + X[1]\n    struct G2Point {\n        uint256[2] X;\n        uint256[2] Y;\n    }\n    struct Proof {\n        G1Point a;\n        G2Point b;\n        G1Point c;\n    }\n}\n\n// DONE define another contract named SolnSquareVerifier that inherits from your ERC721Mintable class\ncontract SolnSquareVerifier is RealEstateMarketplaceToken {\n    Verifier squareVerifierContract;\n\n    // DONE update to pass name and symbol...\n    constructor(\n        address squareVerifierAddress,\n        string memory name,\n        string memory symbol\n    ) public RealEstateMarketplaceToken(name, symbol) {\n        squareVerifierContract = Verifier(squareVerifierAddress);\n    }\n\n    // DONE define a solutions struct that can hold an index & an address\n    struct Solution {\n        uint256 indexOfSolution;\n        address ownerAddress;\n        bytes32 solutionHash;\n    }\n\n    // DONE define an array of the above struct\n    Solution[] private submittedSolutions;\n\n    // DONE define a mapping to store unique solutions submitted\n    // mapping (bytes32 hash => Solution solution)\n    mapping(bytes32 => Solution) private uniqueSolutions;\n\n    // DONE Create an event to emit when a solution is added\n    event SolutionAdded(\n        uint256 indexOfSolution,\n        address ownerAddress,\n        bytes32 solutionHash\n    );\n\n    // DONE Create a function to add the solutions to the array and emit the event\n    function addSolution(address ownerAddress, bytes32 solutionHash)\n        public\n        onlyOwner\n    {\n        uint256 indexOfSolution = submittedSolutions.length + 1;\n        Solution memory _solution = Solution(\n            indexOfSolution,\n            ownerAddress,\n            solutionHash\n        );\n        submittedSolutions.push(_solution);\n        uniqueSolutions[solutionHash] = _solution;\n        emit SolutionAdded(indexOfSolution, ownerAddress, solutionHash);\n    }\n\n    // DONE define a contract call to the zokrates generated solidity contract <Verifier> or <renamedVerifier>\n    function verifyProof(\n        SharedProof.Proof memory proof,\n        uint256[2] memory input\n    ) private view returns (bool) {\n        return squareVerifierContract.verifyTx(proof, input);\n    }\n\n    // DONE Create a function to mint new NFT only after the solution has been verified\n    //  - make sure the solution is unique (has not been used before)\n    //  - make sure you handle metadata as well as tokenSupply\n    function mint(\n        SharedProof.Proof memory proof,\n        uint256[2] memory input,\n        address to,\n        uint256 tokenId\n    ) public onlyOwner returns (bool) {\n        bytes32 solutionHash = keccak256(\n            abi.encodePacked(\n                proof.a.X,\n                proof.a.Y,\n                proof.b.X,\n                proof.b.Y,\n                proof.c.X,\n                proof.c.Y,\n                input\n            )\n        );\n        require(\n            uniqueSolutions[solutionHash].indexOfSolution == 0,\n            \"must be a unique solution\"\n        );\n        require(verifyProof(proof, input), \"must be a valid proof to continue\");\n        addSolution(to, solutionHash);\n        return mint(to, tokenId);\n    }\n}\n\ncontract Verifier {\n    function verifyTx(SharedProof.Proof memory proof, uint256[2] memory input)\n        public\n        view\n        returns (bool r);\n}\n",
  "sourcePath": "C:\\Users\\jerom\\source\\Blockchain-Capstone\\eth-contracts\\contracts\\SolnSquareVerifier.sol",
  "compiler": {
    "name": "solc",
    "version": "0.5.16+commit.9c3226ce.Emscripten.clang"
  },
  "schemaVersion": "3.4.3",
  "updatedAt": "2021-10-30T19:14:22.691Z",
  "networkType": "ethereum",
  "devdoc": {
    "methods": {
      "isApprovedForAll(address,address)": {
        "details": "Tells whether an operator is approved by a given owner",
        "params": {
          "operator": "operator address which you want to query the approval of",
          "owner": "owner address which you want to query the approval of"
        },
        "return": "bool whether the given operator is approved by the given owner"
      },
      "setApprovalForAll(address,bool)": {
        "details": "Sets or unsets the approval of a given operator An operator is allowed to transfer all tokens of the sender on their behalf",
        "params": {
          "approved": "representing the status of the approval to be set",
          "to": "operator address to set the approval"
        }
      },
      "supportsInterface(bytes4)": {
        "details": "implement supportsInterface(bytes4) using a lookup table"
      },
      "tokenByIndex(uint256)": {
        "details": "Gets the token ID at a given index of all the tokens in this contract Reverts if the index is greater or equal to the total number of tokens",
        "params": {
          "index": "uint256 representing the index to be accessed of the tokens list"
        },
        "return": "uint256 token ID at the given index of the tokens list"
      },
      "tokenOfOwnerByIndex(address,uint256)": {
        "details": "Gets the token ID at a given index of the tokens list of the requested owner",
        "params": {
          "index": "uint256 representing the index to be accessed of the requested tokens list",
          "owner": "address owning the tokens list to be accessed"
        },
        "return": "uint256 token ID at the given index of the tokens list owned by the requested address"
      },
      "totalSupply()": {
        "details": "Gets the total amount of tokens stored by the contract",
        "return": "uint256 representing the total amount of tokens"
      }
    }
  },
  "userdoc": {
    "methods": {}
  }
}